:1000000031C1000060C100005EC100005CC10000A1
:100010005AC1000058C1000056C1000054C1000080
:1000200052C1000050C100004EC100004CC1000090
:100030004AC1000048C1000046C1000044C10000A0
:1000400042C1000040C100003EC100003CC10000B0
:100050003AC1000038C1000036C100000C94CD2226
:1000600032C100000C9458260C948E262CC100003E
:100070002AC1000028C1000026C1000024C10000E0
:1000800022C1000020C100001EC100001CC10000F0
:100090001AC1000018C1000016C100000C94D61D42
:1000A00012C1000010C100000EC100000CC1000010
:1000B0000AC1000008C1000006C1000004C1000020
:1000C00002C1000000C10000FEC00000FCC0000032
:1000D000FAC00000F8C00000F6C00000F4C0000044
:1000E000F2C000008821A021A0219E21A02186210C
:1000F000A021A021A0217921A021A02190219C2133
:100100009A21A021A021A021982116241924082495
:100110000C24122450241D24212427242B242F2492
:10012000352439243D245024432447244B24000003
:100130000A0B02090C0D0E08070304010000000061
:1001400000000000000000000000000000000000AF
:10015000000000000000000000001211100000006C
:10016000000000000000000000000000000000008F
:10017000000000000102102020080810204010207C
:10018000408002010201080402010102040810205B
:100190004080804020100804020180040201804059
:1001A00020100804020108040201010204081020C2
:1001B0004080010204081020408005050505070560
:1001C00008080808020202020A0A080804040404D3
:1001D00001010101010101010303030303030303FF
:1001E000040707070C0C0C0C0C0C0C0C020202028E
:1001F00006060606060606060B0B0B0B0B0B0B0B77
:10020000000020002300260029002C002F003200CF
:100210000001000003010601090100002200250081
:1002200028002B002E0031003400020100000501DF
:1002300008010B0100002100240027002A002D00E6
:100240003000330001010000040107010A016C0BBA
:10025000AE0C070DA4107112F513BD15F71CC026C6
:100260006B27BC0B11241FBECFEFD1E2DEBFCDBF89
:1002700000E00CBF14E1A0E0B2E0E2E0FFE500E046
:100280000BBF02C007900D92A63AB107D9F726E13D
:10029000A6EAB4E101C01D92AC3DB207E1F712E05D
:1002A000C2E6D2E000E006C022970109FE010BBFC2
:1002B0000E94FA2CCE34D10780E00807A9F70E94EB
:1002C0007B270C94702F9CCEFC01DB0112968D9144
:1002D0009C9113979383828314964D915D916D91B8
:1002E0007C911797448355836683778318964D9145
:1002F0005D916D917C911B974087518762877387D1
:1003000082E094E1918380831C968C918487089588
:100310008F929F92AF92BF92CF92DF92EF92FF9215
:100320000F931F93CF93DF93EC0168E974E10E9470
:10033000F82764E472E0CE010E94F8276BE472E0D3
:10034000CE010E94F8276DE672E0CE010E94D3270D
:1003500063E772E0CE010E94D32762EC72E0CE0127
:100360000E94D3276CE772E0CE010E94D32768E891
:1003700072E0CE010E94D32762E972E0CE010E94B2
:10038000D32767E972E0CE010E94D3276091B814A9
:100390007091B9144AE050E0CE010E94B6286CE991
:1003A00072E0CE010E94D32768E872E0CE010E947D
:1003B000D3276FEA72E0CE010E94D3276DE672E088
:1003C000CE010E94D32763E772E0CE010E94D327BB
:1003D00065EB72E0CE010E94D3276CE772E0CE019C
:1003E0000E94D32768E872E0CE010E94D32762E919
:1003F00072E0CE010E94D32767E972E0CE010E942D
:10040000D3276091B4147091B5144AE050E0CE0146
:100410000E94B6286CE972E0CE010E94D32768E8FA
:1004200072E0CE010E94D3276FEA72E0CE010E94F3
:10043000D3276DE672E0CE010E94D32763E772E016
:10044000CE010E94D3276EEC72E0CE010E94D3272A
:100450006CE772E0CE010E94D32768E872E0CE011B
:100460000E94D32762E972E0CE010E94D32767E998
:1004700072E0CE010E94D3274091AC145091AD148C
:100480006091AE147091AF1422E030E0CE010E9472
:10049000AB2963EE72E0CE010E94D32765EE72E0D5
:1004A000CE010E94D32720E030E040E05FE360917E
:1004B000AC147091AD148091AE149091AF140E9461
:1004C0005F2CAB01BC0122E030E0CE010E94AB29E1
:1004D0006CEE72E0CE010E94D3276DE672E0CE0191
:1004E0000E94D32763E772E0CE010E94D3276FEE0C
:1004F00072E0CE010E94D3276CE772E0CE010E9429
:10050000D32768E872E0CE010E94D32762E972E047
:10051000CE010E94D32767E972E0CE010E94D32763
:100520004091A6145091A7146091A8147091A91439
:1005300022E030E0CE010E94AB2962E073E0CE0100
:100540000E94D32788E1E82E82E0F82E9CEDC92E88
:1005500094E1D92E07EC14E1C801875C94415C0159
:100560008091250290912602A816B9060CF07BC056
:1005700065E473E082ED94E10E94682A4701F70187
:10058000619171917F0182ED94E10E94772A64E983
:1005900073E08CEC94E10E94682AF401608171811F
:1005A0008CEC94E10E94772A6DE672E0CE010E9405
:1005B000D32763E772E0CE010E94D327B601CE01B4
:1005C0000E94C5276CE772E0CE010E94D32762E942
:1005D00072E0CE010E94D32767E073E0CE010E9453
:1005E000D32767E273E0CE010E94D3274AE050E0B0
:1005F000B501CE010E94B62867E473E0CE010E94E7
:10060000D32761E573E0CE010E94D32766E773E04C
:10061000CE010E94D3274AE050E0B501CE010E94EE
:10062000B62867E473E0CE010E94D327F8019191C8
:100630008F0180912402992319F0811103C005C014
:10064000811103C06BED73E002C066E973E0CE0177
:100650000E94D32768EC74E0CE010E94D327F6E015
:10066000CF0ED11C79CF8091200290912102892B4D
:1006700041F560E274E0CE010E94D32768E574E0A2
:10068000CE010E94D32762ED74E1CE010E94C527FE
:1006900067E473E0CE010E94D32767E774E0CE01E0
:1006A0000E94D32768E574E0CE010E94D3276CEC4A
:1006B00074E1CE010E94C5276BEA74E0CE010E946E
:1006C000D3276FEC74E0CE010E94F82768ED74E048
:1006D000CE01DF91CF911F910F91FF90EF90DF90AE
:1006E000CF90BF90AF909F908F900C94F8270F936E
:1006F0001F93CF93DF9308E112E0C7ECD4E1809120
:100700002502909126029E01275C34412817390763
:1007100064F4F80180810E5F1F4F0E94BF2421E026
:10072000892B09F420E02993EACFDF91CF911F9123
:100730000F9108950F931F93CF93DF93CDB7DEB73B
:100740002D970FB6F894DEBF0FBECDBF8B01893059
:1007500023E0920799F04130510529F420912402B9
:10076000211107C008C0452B49F420912402211112
:1007700002C060E001C061E00E948A24B8DF80917D
:10078000D814882349F0B801CE0101969DDDCE0131
:100790000196BEDD1092D8142D960FB6F894DEBFE8
:1007A0000FBECDBFDF91CF911F910F9108950F9391
:1007B0001F93CF93DF9307EC14E1C0E0D0E080916A
:1007C000250290912602C817D90764F4CE010E9431
:1007D0004A2F91E0811101C090E0F80191938F01BF
:1007E0002196EDCFDF91CF911F910F9108950F9337
:1007F0001F93CF93DF9307EC14E1C0E0D0E080912A
:10080000250290912602C817D90744F4F801619196
:100810008F01CE010E94522F2196F1CFDF91CF910F
:100820001F910F910895CF93DF93C0E0D0E08091A6
:10083000250290912602C817D9075CF4CE010E94C8
:100840004A2F823020F060E0CE010E94522F219684
:10085000EECFDF91CF910895CF93DF93EC0160EE5F
:1008600074E085E396E10E94D3270E941723AB0131
:10087000BC014093BD145093BE146093BF14709399
:10088000C0142AE030E085E396E10E94BD2881E0B3
:100890008093BC146DEF74E0CE010E94F8276DE0E8
:1008A00075E0CE010E94F82765E275E0CE010E9456
:1008B000F827CE010E94E52768E375E0CE010E948B
:1008C000F82768E475E0CE010E94F8276FE475E030
:1008D000CE010E94F82761E775E0CE010E94F8275B
:1008E00069EA75E0CE010E94D327609122027091DF
:1008F00023024AE050E0CE010E94B6286EEC75E07B
:10090000CE010E94F82768ED75E0CE010E94F8271D
:1009100061E176E0CE010E94F82767E576E0CE013E
:100920000E94F8276DE976E0CE010E94F82768E979
:1009300074E1CE010E94F82765EB76E0CE010E94BB
:10094000F8276BEC76E0CE010E94F82764ED76E0A4
:10095000CE010E94F82766EE76E0CE010E94F827CD
:1009600065EF76E0CE010E94F8276DE177E0CE01D9
:100970000E94F82764E37BE0CE010E94F82768E933
:1009800074E1CE010E94F8276DEC76E0CE010E9462
:10099000F82761E477E0CE010E94F82769E677E066
:1009A000CE010E94F82768E877E0CE010E94F82780
:1009B0006EE977E0CE010E94F82760ED77E0CE0186
:1009C0000E94F82762EF77E0CE010E94F8276FE1DE
:1009D00078E0CE010E94F82764E37BE0CE010E941C
:1009E000F82768E974E1CE010E94F82761E478E015
:1009F000CE010E94F82769E478E0CE010E94F82732
:100A00006FE578E0CE010E94F82764E37BE0CE0139
:100A10000E94F82768E974E1CE010E94F82763E795
:100A200078E0CE010E94F82765E878E0CE010E94C8
:100A3000F82767E978E0CE010E94F8276EEA78E0AF
:100A4000CE010E94F82769ED78E0CE010E94F827D8
:100A50006AE079E0CE010E94F82768E379E0CE01F0
:100A60000E94F82769E479E0CE010E94F82768E83F
:100A700077E0CE010E94F82768E679E0CE010E9477
:100A8000F8276CE979E0CE010E94F8276CEB79E059
:100A9000CE010E94F82768E679E0CE010E94F8278F
:100AA0006DED79E0CE010E94F82764EF79E0CE0188
:100AB0000E94F8276FE07AE0CE010E94F82761E3F8
:100AC0007AE0CE010E94F82761E67AE0CE010E942A
:100AD000F82764E97AE0CE010E94F82764E37BE01E
:100AE000CE010E94F82768E974E1CE010E94F82740
:100AF00068EB7AE0CE010E94F8276DEC7AE0CE0137
:100B00000E94F82765EE7AE0CE010E94F8276AEF8E
:100B10007AE0CE010E94F82766EE76E0CE010E94D0
:100B2000F82764E37BE0CE010E94F82768E974E1CE
:100B3000CE010E94F82761E17BE0CE010E94F827F8
:100B400062E27BE0CE010E94F82763E37BE0CE0106
:100B50000E94F82768E974E1CE010E94F82769E352
:100B60007BE0CE010E94F8276DEC7AE0CE010E9476
:100B7000F8276DE47BE0CE010E94F82761E67BE078
:100B8000CE010E94F82766E77BE0CE010E94F8279D
:100B900067E978E0CE010E94F8276CE87BE0CE019F
:100BA0000E94F8276BEA7BE0CE010E94F82764E3FD
:100BB0007BE0CE010E94F82768E974E1CE010E9433
:100BC000F82767EC7BE0CE010E94F8276DE47BE01C
:100BD000CE010E94F8276BED7BE0CE010E94F82742
:100BE00060EF7BE0CE010E94F82767E978E0CE0154
:100BF0000E94F8276CE87BE0CE010E94F8276BEAA0
:100C00007BE0CE010E94F82764E37BE0CE010E94E6
:100C1000F82768E974E1CE010E94F82764E07CE0DF
:100C2000CE010E94F82768E17CE0CE010E94F827FF
:100C30006CE27CE0CE010E94F82760EF7BE0CE0101
:100C40000E94F82767E978E0CE010E94F82761E466
:100C50007CE0CE010E94F82764E67CE0CE010E9491
:100C6000F82764E37BE0CE010E94F82768E974E18D
:100C7000CE010E94F8276DE77CE0CE010E94F827A4
:100C800064E97CE0CE010E94F8276EE470E1CE01B9
:100C90000E94F82761E770E1CE010E94F82761E920
:100CA00070E1CE010E94F82763EB70E1CE010E9453
:100CB000F82761E67BE0CE010E94F82760EB7CE03C
:100CC000CE010E94F82767EC7CE0CE010E94F82755
:100CD0006FED7CE0CE010E94F8276EEF7CE0CE0144
:100CE0000E94F8276EE17DE0CE010E94F82764E3C0
:100CF0007DE0CE010E94F8276BE47DE0CE010E94EA
:100D0000F82769E67DE0CE010E94F82764E37BE0E6
:100D1000CE010E94F82768E974E1CE010E94F8270D
:100D200069E87DE0CE010E94F82769E97DE0CE0107
:100D30000E94F8276DEA7DE0CE010E94F8276FEB54
:100D40007DE0CE010E94F82760ED7DE0CE010E949B
:100D5000F8276CEE7DE0CE010E94F8276AE07EE085
:100D6000CE010E94F8276BE27EE0CE010E94F827B8
:100D70006BE47EE0CE010E94F82764E67EE0CE01BF
:100D80000E94F8276AE77EE0CE010E94F82764EF10
:100D90007EE0CE010E94F82760E17FE0CE010E9454
:100DA000F8276EE47FE0CE010E94F82767E97FE034
:100DB000CE010E94F82763E37BE0CE010E94F82772
:100DC00068E974E1CE010E94F8276BED7FE0CE0167
:100DD0000E94F82769E97DE0CE010E94F8276DEABC
:100DE0007DE0CE010E94F8276FEB7DE0CE010E94EE
:100DF000F8276BEE7FE0CE010E94F8276CEE7DE0D5
:100E0000CE010E94F8276AE07EE0CE010E94F8271A
:100E10006BE27EE0CE010E94F8276BE47EE0CE011B
:100E20000E94F82764E67EE0CE010E94F82760E188
:100E30007FE0CE010E94F8276EE47FE0CE010E94A1
:100E4000F82767E97FE0CE010E94F82763E37BE0A3
:100E5000CE010E94F82768E974E1CE010E94F827CC
:100E600067E070E1CE010E94F82763E170E1CE01F6
:100E70000E94F8276DE270E1CE010E94F8276BE333
:100E800070E1CE010E94F8276CE470E1CE010E946F
:100E9000F8276FE670E1CE010E94F8276FE870E155
:100EA000CE010E94F82761EB70E1CE010E94F82785
:100EB0006CEC70E1CE010E94F8276FED70E1CE017D
:100EC0000E94F82762EF70E1CE010E94F82768E0E7
:100ED00071E1CE010E94F8276BE371E1CE010E941F
:100EE000F82763E37BE0CE010E94F82768E974E10C
:100EF000CE010E94F82768EB71E1CE010E94F8272D
:100F000061EC71E1CE010E94F82769EC71E1CE013C
:100F10000E94F82760ED71E1CE010E94F82763EE90
:100F200071E1CE010E94F82764E072E1CE010E94D7
:100F3000F82765E272E1CE01DF91CF910C94F8279A
:100F4000CF93DF93EC011092D9141092D81468E972
:100F500074E182ED94E10E94282A68E974E18CEC46
:100F600094E10E94282A60E372E1CE010E94F827F2
:100F700061EC74E1CE010E94E82765E672E1CE01E2
:100F80000E94F82761E070E080E090E00E94462334
:100F9000CE010E94171268E872E185E396E10E9493
:100FA000F82762E070E080E090E0DF91CF910C9450
:100FB0004623CF93DF93EC0165EA72E10E94F827A4
:100FC00062EC72E1CE010E94F827CE01DF91CF9151
:100FD0000C94E527CF93DF93EC016CEE72E10E9455
:100FE000F827CE01DF91CF910C94E527DF92EF92A5
:100FF000FF920F931F93CF93DF93CDB7DEB76B971D
:101000000FB6F894DEBF0FBECDBF64EF74E1CE0122
:101010000E960E948D13CE010E960E94D710882343
:1010200009F4EEC0F12CDD24D39401E010E0CE01F0
:101030000E960E944E12882309F4D8C0CE010E9657
:101040000E940311892B99F3CE010E960E940B1179
:10105000282F8A32E1F4BE01625F7F4FCE010196F4
:1010600033D9CE010196F8DBBE01625F7F4FCE011E
:1010700001962AD9CE010196ADDFBE01625F7F4F96
:10108000CE01019621D9CE0101965ADFAFC0F110F1
:1010900014C0BE01625F7F4FCE0101962B8F14D921
:1010A000CE010196D9DBBE01625F7F4FCE01019672
:1010B0000BD9CE0101967DDF2B8D8091CB14882337
:1010C00029F0203219F41092CB1404C02F3311F4FC
:1010D000D092CB148091CB14882309F46BC02834B0
:1010E00029F41093DB140093DA1406C02C3421F495
:1010F0001092DB141092DA14622F85E396E12B8FA5
:101100000E94D4272B8D213371F1B4F4203309F0E0
:1011100051C0E090DA14F090DB14BE01625F7F4FA3
:10112000CE010196D1D8A701BE016F5F7F4F80919C
:101130001802909119023CC0223341F12333D1F5BA
:10114000E090DA14F090DB14BE01625F7F4FCE01B5
:101150000196BAD8A701BE016F5F7F4F80911E0232
:1011600090911F0225C0E090DA14F090DB14BE01CC
:10117000625F7F4FCE010196A7D8A701BE016F5FC6
:101180007F4F80911A0290911B0212C0E090DA14F6
:10119000F090DB14BE01625F7F4FCE01019694D8C0
:1011A000A701BE016F5F7F4F80911C0290911D02CD
:1011B000C1DA19C02A30B9F481E08093D914809340
:1011C000D8140091DA141091DB14BE01625F7F4FD6
:1011D000CE01019679D8A801BE016F5F7F4F89E0EB
:1011E00093E0A8DA03C0FF24F39421CFBE01625F2D
:1011F0007F4FCE01019668D8CE010196A1DE21C0B5
:101200000E9417230091BD141091BE142091BF14A9
:101210003091C014005D1A482F4F3F4F0617170733
:101220002807390770F48091BC14882351F0DFDA65
:101230006EE173E185E396E10E94F82781E08093F7
:10124000BC146B960FB6F894DEBF0FBECDBFDF9116
:10125000CF911F910F91FF90EF90DF9008958F92A3
:101260009F92AF92BF92CF92DF92EF92FF92CF9375
:10127000DF9300D000D0CDB7DEB780913F020E944F
:10128000BF245C01909301158093001581E0A8169E
:10129000B104B1F58091FE149091FF14892B81F572
:1012A0000E941723C090FA14D090FB14E090FC1415
:1012B000F090FD146C197D098E099F09C0903902C8
:1012C000D0903A02E0903B02F0903C02C616D7065E
:1012D000E806F906A8F480913D0290913E0201973C
:1012E00009F0F5C110923E0210923D020E941723B0
:1012F0006093FA147093FB148093FC149093FD1484
:1013000060913D02809118020E948A24CE010196CC
:101310000E94DF2183E095E10E947D1F40E060E0B4
:1013200083E095E10E94821F4AE050E06C8183E0F7
:1013300095E10E94C92840E062E083E095E10E94C7
:10134000821F63E773E183E095E10E94D32740E0C9
:1013500063E083E095E10E94821F4AE050E06D81E6
:1013600083E095E10E94C92840E065E083E095E1D3
:101370000E94821F63E773E183E095E10E94D32717
:1013800040E066E083E095E10E94821F4AE050E081
:101390006E8183E095E10E94C92841E060E083E02E
:1013A00095E10E94821F62E673E183E095E10E946D
:1013B000D32741E065E083E095E10E94821F6091C0
:1013C000B8147091B9144AE050E083E095E10E94AE
:1013D000B62841E068E083E095E10E94821F6EE557
:1013E00073E183E095E10E94D32741E061E183E06E
:1013F00095E10E94821F6091B4147091B5144AE087
:1014000050E083E095E10E94B62840E069E083E087
:1014100095E10E94821F4AE050E06B8183E095E1F4
:101420000E94C92840E06BE083E095E10E94821FA2
:1014300068E673E183E095E10E94D32740E06CE029
:1014400083E095E10E94821F4AE050E06A8183E0D8
:1014500095E10E94C92840E06EE083E095E10E949A
:10146000821F68E673E183E095E10E94D32740E0A4
:101470006FE083E095E10E94821F698170E0605314
:10148000784F4AE050E083E095E10E94CF2842E0A7
:1014900060E083E095E10E94821F6BE673E183E0E8
:1014A00095E10E94D32742E066E083E095E10E9447
:1014B000821F4091AC145091AD146091AE147091A4
:1014C000AF1422E030E083E095E10E94AB2942E0D6
:1014D0006CE083E095E10E94821F62E773E183E0A4
:1014E00095E10E94D32742E06EE083E095E10E94FF
:1014F000821F4091A6145091A7146091A814709176
:10150000A91422E030E083E095E10E94AB2943E09A
:1015100060E083E095E10E94821F66EE72E083E066
:1015200095E10E94D32743E065E083E095E10E94C6
:10153000821F20E030E040E05FE36091AC147091E6
:10154000AD148091AE149091AF140E945F2CAB014A
:10155000BC0122E030E083E095E10E94AB2986E304
:101560000E94D8239093BB148093BA1444EF51E0A7
:10157000849F9001859F300D949F300D112437FF7B
:1015800002C021503C4F232F330F330B2595259557
:101590008091160290911702280F391F3093B914C9
:1015A0002093B81487E30E94D8239093B7148093B4
:1015B000B61444EF51E0849F9001859F300D949FB5
:1015C000300D112437FF02C021503C4F232F330F21
:1015D000330B259525958091140290911502280FC3
:1015E000391F3093B5142093B414809112020E94D5
:1015F000D8239093AB148093AA14BC01882777FD5D
:101600008095982F0E94AB2B20E030E040EA50E418
:101610000E945F2C20E030E040E85AE30E945F2CFB
:101620006B017C016093B0147093B1148093B21479
:101630009093B31480900A0290900B02A0900C0239
:10164000B0900D0220910E0230910F0240911002D5
:1016500050911102C501B4010E94A82A9B01AC015E
:10166000C501B4010E94102B9B01AC01C701B6015A
:101670000E94102B6B017C012CEE31E548EB5DE301
:101680000E940C2B87FD09C0C092AC14D092AD14FF
:10169000E092AE14F092AF1408C01092AC14109205
:1016A000AD141092AE141092AF14A0DC26960FB6B3
:1016B000F894DEBF0FBECDBFDF91CF91FF90EF90CA
:1016C000DF90CF90BF90AF909F908F900895B09291
:1016D0003E02A0923D020ACE8F92AF92CF92EF923D
:1016E0000F9300E020E040E060E08CE195E10E9493
:1016F000442767E0862E76E0A72EE5E0CE2EF4E0C4
:10170000EF2E21E042E06FE383E095E10E94B420F8
:1017100060E570E084EF94E145D765E773E18CED17
:1017200094E10E94132A62E873E182EE94E10E9440
:10173000132A68EA73E188EE94E10E94132A64EBAD
:1017400073E18EEE94E10E94132A68E974E182ED60
:1017500094E10E94132A68E974E18CEC94E10E9400
:10176000132A6CEB73E181EC94E10F91EF90CF9031
:10177000AF908F900C94132A81EC94E10E94AC29D5
:101780008CEC94E10E94AC2982ED94E10E94AC299A
:101790008EEE94E10E94AC2988EE94E10E94AC297F
:1017A00082EE94E10E94AC298CED94E10C94AC297A
:1017B000EF92FF920F931F93CF93DF93CDB7DEB7D6
:1017C00062970FB6F894DEBF0FBECDBF60E0809188
:1017D0003F020E94512420E044E064E183E095E16F
:1017E0000E942C2140E050E063E083E095E10E94FC
:1017F0002A2061E083E095E10E943E208CE695E19D
:101800000E94BF1C26E040E855E260E070E085E3FE
:1018100096E10E94F8258CE695E10E94BF1C0E948B
:10182000B82182E095E10E94BA21811112C062ECD8
:1018300073E185E396E10E94F82746ED53E16FEDF1
:1018400073E1CE0101960E945921CE0101960E94BA
:10185000602226E040E855E260E070E085E396E132
:101860000E94F8250E9413040E94D7036DE272E0E3
:10187000CE0101960E94502761E372E0CE010796E7
:101880000E94502765E372E0CE010D960E9450271A
:101890008E010F5F1F4F9E01295F3F4FAE01435FD7
:1018A0005F4F67E272E08EE295E1B4D384EF94E19A
:1018B00039D66BEE73E185E396E10E94D3276EE2A1
:1018C00075E1C8011BD4B80185E396E10E940828A0
:1018D00008E112E0A7ECEA2EA4E1FA2E809125029D
:1018E000909126029701275C34412817390724F587
:1018F00061E0F80180810E945124809124028823B4
:1019000041F061E0F80180810E948A24F701608142
:1019100009C060E0F80180810E948A24F70160819B
:1019200081E06827F80180810E948A240E5F1F4FA2
:10193000FFEFEF1AFF0AD2CF60E0809112020E94FF
:10194000512462960FB6F894DEBF0FBECDBFDF9173
:10195000CF911F910F91FF90EF9008950F9300E0AA
:1019600020E040E060E082E295E10E9444270F9190
:101970000895FB014281538164817581FC0142839A
:10198000538364837583178216820895CF93FB0176
:1019900081918111FDCFFB0180E090E020E030E0FB
:1019A000CAE06191662309F12430310564F56E3295
:1019B00071F48F3F910509F034F5DA01A20FB31FDE
:1019C00012968C932F5F3F4F80E090E0EACFDC01CE
:1019D000CA9FC001CB9F900D1124772767FD70959A
:1019E00060537109860F971FDCCF8F3F910509F077
:1019F00054F4243031053CF4FA01E20FF31F8283E2
:101A000081E090E002C080E090E0CF9108950F93D4
:101A100000E020E040E060E088E295E10E94442799
:101A20000F910895AF92BF92CF92DF92EF92FF9203
:101A30000F931F93CF93DF9300D0CDB7DEB76C0128
:101A40007B010E941723F601778366838601085F76
:101A50001F4FB6016A5F7F4F42E050E0C80135D7A3
:101A600081E090E09A83898342E050E0BE016F5F9D
:101A70007F4FC8012AD780E091E09A83898342E0B2
:101A800050E0BE016F5F7F4FC8011FD71A821982D5
:101A900042E050E0BE016F5F7F4FC80116D742E0C1
:101AA00050E0BE016F5F7F4FC8010FD742E050E0AA
:101AB000BE016F5F7F4FC80108D76701F6018081C3
:101AC000882301F1F7016F018191811113C0560143
:101AD000AE18BF081A141B0484F4AB8241E050E036
:101AE000BE016D5F7F4FC801F0D6A501B701C801E7
:101AF000ECD603C08E3239F7EACF7601FFEFEF1A4A
:101B0000FF0ADCCF1B8241E050E0BE016D5F7F4FDA
:101B1000C801DBD6E12CFF24F394FA82E98242E08B
:101B200050E0BE016F5F7F4FC801CFD6FA82E982D5
:101B300042E050E0BE016F5F7F4FC801C6D681E032
:101B400090E00F900F900F90DF91CF911F910F9128
:101B5000FF90EF90DF90CF90BF90AF9008954F929D
:101B60005F926F927F928F929F92AF92BF92CF922D
:101B7000DF92EF92FF920F931F93CF93DF93CDB736
:101B8000DEB763970FB6F894DEBF0FBECDBF7C0102
:101B90005B016A010E9417232B013C018701085F4A
:101BA0001F4F4501A12CB12CC80129D718161906C1
:101BB00094F00E94172364197509860997098616FF
:101BC0009706A806B906D0F062E370E080E090E0E6
:101BD0000E944623E9CFF7014281538164817581D8
:101BE000818D928DA38DB48D481759076A077B07A5
:101BF00041F4858D968DC59721F406C08FEF9FEF38
:101C0000E0C08EEF9FEFDDC0C80115D60C970CF435
:101C1000D6C04CE050E0BE016F5F7F4FC80190D648
:101C20008B819C819827892798279A8B898BF7012C
:101C30004681578129813A814217530711F497FD54
:101C400005C0C80112D68CEF9FEFBBC08F70927099
:101C5000892B29F0C80109D68BEF9FEFB2C0AF8066
:101C6000B884BA24AB24BA24A114B10419F0E12C2D
:101C7000F12C1DC0C801F9D58AEF9FEFA2C041E049
:101C800050E0BE01635F7F4FC8015AD68D85811138
:101C900017C08D858111F3CFC8012AD6C80128D677
:101CA000C80126D6C80124D6FFEFEF1AFF0A8D819E
:101CB0009E81982789279827E816F90600F309C01E
:101CC0008D859FEF980F9D87882319F3C80110D643
:101CD000F7CFE12CF12C41E050E0BE016D5E7F4F6B
:101CE000C8012ED68B89982F907C59F4882361F0F7
:101CF0008B899FEF980F9B8B882331F0C801F8D513
:101D0000F7CFC801F5D51B8A8B898111E4CF42E05A
:101D100050E0BE01615F7F4FC80112D642E050E043
:101D2000BE01635F7F4FC8010BD6C801E1D5C80172
:101D3000DFD5C801DDD5C801DBD542E050E0BE01EA
:101D40006F5E7F4FC801FCD58F85988981159140C2
:101D500029F48D859E858115914019F0812C912C57
:101D600014C089899A898115944029F0C8017DD5CC
:101D700087EF9FEF26C0B6016E5F7F4F44E050E0D3
:101D8000C801DED581E090E01CC089899A89982736
:101D9000892798278816990630F4C801A9D52FEF0E
:101DA000821A920AF2CF8FEFE81AF80AEA14FB04BB
:101DB00009F091CFC80159D586EF9FEF02C08DEF92
:101DC0009FEF63960FB6F894DEBF0FBECDBFDF91D5
:101DD000CF911F910F91FF90EF90DF90CF90BF9028
:101DE000AF909F908F907F906F905F904F900895ED
:101DF0008F929F92AF92BF92CF92DF92EF92FF921B
:101E00000F931F93CF93DF9300D000D0CDB7DEB7F1
:101E10008C015B016A01BADD4C01009709F057C0E3
:101E2000F801428153816481758180912A159091D6
:101E30002B15A0912C15B0912D15481759076A073D
:101E40007B0709F448C00E9417237801F8E0EF0EE1
:101E5000F11C6F7077277C5FC701A6D5813009F030
:101E60003EC084E994E19A838983F8018281938159
:101E7000A481B5818B839C83AD83BE8345E350E011
:101E8000BE016F5F7F4FC70116D5892B19F4812CD6
:101E9000912C1AC0B501C801C5DD892BC1F3C7015A
:101EA00011D5892BA1F333E0A32EB12CA60168E84C
:101EB00073E1C80154DE4C01F1E0AF1AB10821F022
:101EC0008F3F2FEF920791F3C701E1D408C0882418
:101ED0008394912C04C09EEF892E99249A94C40176
:101EE00026960FB6F894DEBF0FBECDBFDF91CF911F
:101EF0001F910F91FF90EF90DF90CF90BF90AF9028
:101F00009F908F90089520916A15222399F03FB7F2
:101F1000F89420916A15213059F42DB32093681557
:101F20004DB320916915209524232DBB3FBF02C0DE
:101F3000309368158CBD9DBD089580916A158823E6
:101F400061F09FB7F89420916A158091681521304F
:101F500019F48DBB9FBF08958FBF089544E050E0F2
:101F6000BC0181E090E00C94141A44E050E0BC0104
:101F700085E090E00C94141A44E050E0BC018FE03E
:101F800090E00C94141A8F929F92AF92BF92CF92CE
:101F9000DF92EF92FF920F931F93CF93DF931F92E5
:101FA0001F92CDB7DEB74C016A01590188E595E172
:101FB00069837A830E94B01980E590E0A4DF46E04F
:101FC00050E069817A8189E090E00E94141AC6018C
:101FD0000296D2DFC8010296C1DFC7010296C5DFB3
:101FE000ACDFF5014281538164817581F401428344
:101FF0005383648375830F900F90DF91CF911F916E
:102000000F91FF90EF90DF90CF90BF90AF909F9097
:102010008F9008956F927F928F929F92AF92BF920E
:10202000CF92DF92EF92FF920F931F93CF93DF93A4
:10203000CDB7DEB76E970FB6F894DEBF0FBECDBF3B
:102040006C015B017A014901380100E02FEF4FEF8D
:102050006FEFCE0149960E94442724E934E13A8388
:1020600029838B8D9C8DAD8DBE8D8B839C83AD83A1
:10207000BE8338872F83F30182819381A481B58148
:1020800089879A87AB87BC873E872D87F401828139
:102090009381A481B5818F87988BA98BBA8B3C8B58
:1020A0002B8BF70142815381648175814D8B5E8B4F
:1020B0006F8B788FCE0101967C018E01095F1F4FD7
:1020C0009E01235F3F4FAE014D5E5F4FB501C601DC
:1020D0005ADF6E960FB6F894DEBF0FBECDBFDF910C
:1020E000CF911F910F91FF90EF90DF90CF90BF9015
:1020F000AF909F908F907F906F900895CF93DF93D4
:10210000EC010E943A2780E590E0FDDEBE016E5FA3
:102110007F4F44E050E08FE090E00E942A1B0DDFEB
:10212000CE01DF91CF91089524E934E1FC013183A0
:102130002083FB014281538164817581FC014283CC
:1021400053836483758308950F9300E020E040E09B
:1021500060E08EE395E10E9444278EE295E10F91C5
:102160000C943A2781E086270895862F0895DC0194
:10217000ED91FC91048CF58DE02D199591E0892766
:102180000895CF93DF931F92CDB7DEB76983DC014B
:10219000ED91FC910280F381E02D41E050E0BE0121
:1021A0006F5F7F4F19950F90DF91CF91089521E0D8
:1021B000FC018485843009F420E0822F0895FC011D
:1021C0009485FB018485981303C081E0943009F461
:1021D00080E008950F931F93CF93DF93EC018A0162
:1021E0008C85843019F081D6892B39F481E090E018
:1021F0009B838A8380E090E001C0C801DF91CF918A
:102200001F910F910895FC018485843009F054C713
:1022100080E090E00895CF93DF931F92CDB7DEB7B3
:1022200041E050E0BE016F5F7F4FFC018485E8D63E
:10223000181619061CF4898190E002C08FEF9FEFF9
:102240000F90DF91CF910895FC018485D9C60F933B
:102250001F93CF93DF931F92CDB7DEB78C01DC01C4
:10226000ED91FC910480F581E02D1995892B49F0C1
:10227000BE016F5F7F4FF801848547D7898190E069
:1022800002C08FEF9FEF0F90DF91CF911F910F91C1
:102290000895FC01848567C7CF92DF92EF92FF9289
:1022A0000F931F93CF93DF93CDB7DEB7AF970FB6E2
:1022B000F894DEBF0FBECDBF7C018B016A01CE0159
:1022C00001960E943A27CE010996E7D3CE018A965D
:1022D0000E943A276EE275E1CE01849625DFBE01A9
:1022E0006C5D7F4FCE01019644DBAE01465D5F4FD2
:1022F000B801CE0101967CDD81309105C1F4D70192
:10230000ED91FC910484F585E02D84E994E19DA391
:102310008CA30CA51DA52EA53FA50EA31FA328A722
:1023200039A7A601BE016C5D7F4FC7011995AF9615
:102330000FB6F894DEBF0FBECDBFDF91CF911F91D6
:102340000F91FF90EF90DF90CF900895FC01262F22
:102350001382128248EE53E060E070E044835583BC
:102360006683778382E094E1918380832487089554
:10237000FC018485843009F07EC480E00895DF92FA
:10238000EF92FF920F931F93CF93DF93EC017B01AA
:102390008A018C85843009F040C0D12C8D2D6BD4FE
:1023A000811102C0DC8607C08B7F8831D9F3D394BA
:1023B00084E0D812F3CF8C85843079F120914102EA
:1023C000309142022F5F3F4F11F420E030EC309308
:1023D000420220934102409141025091420220E08A
:1023E00061E092D4B7016E5F7F4FA8018C8507D55D
:1023F000811103C084E08C8710C0CE01B9DF873122
:1024000049F061E070E080E090E00E944623CE0158
:10241000AFDFEECF81E090E002C080E090E0DF919E
:10242000CF911F910F91FF90EF90DF900895CF9281
:10243000DF92EF92FF92CF93DF93EC018C85843093
:1024400031F130D50E9417236B017C01CE0190DF62
:10245000882399F061E070E080E090E00E944623DC
:102460000E9417236C197D098E099F09683E7340ED
:102470008105910558F38C8521D4EC85F0E0EE0FB1
:10248000FF1FEA5CFA4E1182108284E08C87DF9194
:10249000CF91FF90EF90DF90CF900895CF93DF938F
:1024A000EC018C858430C9F0CE0162DF8431A9F063
:1024B000882399F0883189F08C3169F4E881F981B9
:1024C0000480F581E02DCE01199521E0892B09F4D6
:1024D00020E0822F03C081E001C080E0DF91CF9136
:1024E00008950F9300E020E040E060E084E495E18F
:1024F0000E9444270F910895CF93DF931F92CDB789
:10250000DEB76983DC01ED91FC910280F381E02D5F
:1025100041E050E0BE016F5F7F4F19950F90DF9152
:10252000CF910895EF92FF920F931F93CF93DF9374
:10253000CDB7DEB72D970FB6F894DEBF0FBECDBF77
:102540007C0100E010E0602FCE010196FFDECE019D
:1025500001960EDF811114C0F7014481558120E0FE
:1025600061E0802FD1D3802F1DD4F7018481958124
:10257000F801EE0FFF1FEA5CFA4E9183808305C0DD
:102580000F5F1F4F04301105F1F62D960FB6F8942A
:10259000DEBF0FBECDBFDF91CF911F910F91FF9096
:1025A000EF900895FC011382128286E294E19183F8
:1025B0008083758364830895BF92CF92DF92EF92F8
:1025C000FF920F931F93CF93DF93CDB7DEB72D9775
:1025D0000FB6F894DEBF0FBECDBF8C0146E3C42E0C
:1025E00045E1D42EB12CE12CF12C6B2DCE010196BE
:1025F000ADDED6012D913D916D01F801848195816B
:102600002817390799F4CE010196B2DE843159F0CA
:10261000CE010196ADDE8C3149F4CE010196F3DD99
:10262000892B99F003C0EE24E394F12CB394F4E0E9
:10263000BF12DBCFEF2869F4D801ED91FC91048043
:10264000F581E02DC801199504C0CE010196EFDE99
:10265000EDCF2D960FB6F894DEBF0FBECDBFDF9144
:10266000CF911F910F91FF90EF90DF90CF90BF908F
:1026700008957F928F929F92AF92BF92CF92DF92F6
:10268000EF92FF920F931F93CF93DF93CDB7DEB7F7
:102690002D970FB6F894DEBF0FBECDBF6C015B0166
:1026A0004A018ADF56E3E52E55E1F52E712C00E054
:1026B00010E0672DCE01019649DEF701219131919D
:1026C0007F01F601848195812817390729F4CE010D
:1026D00001964EDE8731C9F07394F4E07F12E9CFA2
:1026E000C8012D960FB6F894DEBF0FBECDBFDF91A7
:1026F000CF911F910F91FF90EF90DF90CF90BF90FF
:10270000AF909F908F907F900895A401B501CE0166
:10271000019660DD080F191FDFCFBF92CF92DF92C5
:10272000EF92FF920F931F93CF93DF93CDB7DEB756
:102730002D970FB6F894DEBF0FBECDBF8C016B0195
:10274000CB013ADF66E3E62E65E1F62EB12C6B2D68
:10275000CE010196FBDDF701219131917F01F60158
:10276000848195812817390741F5CE01019600DE55
:10277000873111F08C3109F5CE01019644DD892BAA
:10278000E1F08B819C81F801938382838D819E810E
:10279000AF81B88584839583A683B78349855A859D
:1027A0006B857C85408751876287738782E094E1DF
:1027B000918380838D85848707C0B394F4E0BF1232
:1027C000C6CF64E0C801C2DDC8012D960FB6F894EB
:1027D000DEBF0FBECDBFDF91CF911F910F91FF9054
:1027E000EF90DF90CF90BF9008950F9300E020E02E
:1027F00040E060E08AE495E10E9444270F9108954B
:10280000DC01ED91FC91008CF18DE02D199424E90F
:1028100034E1FC0131832083FB01418952896389C2
:102820007489FC0142835383648375830895FC019A
:10283000858996890895FC01818D928D0895CF93A5
:10284000DF931F92CDB7DEB76983DC01ED91FC9178
:102850000280F381E02D41E050E0BE016F5F7F4FC9
:1028600019950F90DF91CF910895CF93DF93EC01ED
:10287000898D9A8D892B41F0E881F9810680F78155
:10288000E02DCE011995F4CFDF91CF910895CF932C
:10289000DF93EC018C85843059F010D2EC85F0E0A8
:1028A000EE0FFF1FEA5CFA4E1182108284E08C87E3
:1028B000DF91CF910895FC01108E178A6E5F7F4FD4
:1028C000848596C4FC018485D7C4CF93DF93EC0143
:1028D0009A018F89988DAB01BC018C8545D42F89D5
:1028E000388D280F391F388F2F8BDF91CF910895A6
:1028F0000F931F93CF93DF931F92CDB7DEB78C0159
:10290000FC01818D928D892B51F041E050E0BE0198
:102910006F5F7F4F848574D3181619061CF08FEFF4
:102920009FEF08C0F801818D928D0197928F818F62
:10293000898190E00F90DF91CF911F910F910895C1
:10294000CF93DF93EC01898D9A8D009719F48FEF67
:102950009FEF0FC04817590708F0AC018C8550D382
:1029600018161906A4F7298D3A8D281B390B3A8FB2
:10297000298FDF91CF910895CF93DF931F92CDB729
:10298000DEB7FC01218D328D232B41F0BE016F5F3C
:102990007F4F8485BAD3898190E002C08FEF9FEF8B
:1029A0000F90DF91CF910895FF920F931F93CF93D4
:1029B000DF93EC018B018C858430D1F4F12C8F2DC9
:1029C0005AD1811102C0FC8606C08831E1F3F3942C
:1029D00084E0F812F4CF8C85843051F01E870D8787
:1029E0001A8E198E20E0A80162E08ED181E001C02C
:1029F00080E0DF91CF911F910F91FF9008950F9389
:102A00001F93CF93DF93CDB7DEB728970FB6F89417
:102A1000DEBF0FBECDBF8C01DC01ED91FC910284C5
:102A2000F385E02D1995F801848546D3181619060B
:102A30003CF548E050E0BE016F5F7F4FD8011C9627
:102A40008C91DED218161906ECF4BE016F5F7F4F31
:102A5000C8010F960E9460278D8190E0982F8827EB
:102A60002E81820F911DF801968B858B8F8190E0CE
:102A7000982F88272885820F911D928F818F02C001
:102A800080E090E028960FB6F894DEBF0FBECDBF71
:102A9000DF91CF911F910F910895FC011382128253
:102AA00048EE53E060E070E04483558366837783AB
:102AB00080E394E19183808384E08487CF010F9643
:102AC0000C943A27CF92DF92EF92FF920F931F93CD
:102AD000CF93DF93CDB7DEB7AF970FB6F894DEBFD5
:102AE0000FBECDBF7C018B016A01CE0101960E9411
:102AF0003A27CE010996D1DFCE018A960E943A2765
:102B00006EE275E1CE0184960FDBBE016C5D7F4FF6
:102B1000CE0101960E94B90CAE01465D5F4FB8012F
:102B2000CE01019665D981309105C1F4D701ED91AF
:102B3000FC910088F189E02D84E994E19DA38CA3A8
:102B40000CA51DA52EA53FA50EA31FA328A739A739
:102B5000A601BE016C5D7F4FC7011995AF960FB6F8
:102B6000F894DEBF0FBECDBFDF91CF911F910F91C3
:102B7000FF90EF90DF90CF9008950F9300E020E05A
:102B800040E060E080E595E10E9444270F910895C0
:102B9000CF92DF92EF92FF920F9330E0C12CF2E1DF
:102BA000DF2EFAE7EF2EF12C4C155D056E057F0543
:102BB00040F4F694E794D794C7943F5F3630A1F77A
:102BC00037E041E04327211102C050E701C050E542
:102BD000242F30E03595279523700C70202B252B62
:102BE000FC012083417041830F91FF90EF90DF90B3
:102BF000CF90089590E0982F882744E050E0845FBC
:102C00009B4F12C4282F30E02C5F3F4F922F882714
:102C1000860F971F32C462E070E0F4CFFB01282FCB
:102C200030E02C5F3F4F922F8827642F8E0F9F1F1D
:102C30007AC3CF93DF93C82FD62F472F64E070E07D
:102C4000EDDF4D2F65E070E08C2FDF91CF91E6CF67
:102C5000462F62E070E0E2CFCF93DF93C82FD62FEC
:102C6000472F60E170E0DADF4D2F61E170E08C2FDB
:102C7000DF91CF91D3CF0F931F93CF93DF9300D0EA
:102C8000CDB7DEB7182F00E021E040E059E06DE35A
:102C900070E0CE0101967CDF89819A8134D963E0AE
:102CA00070E0812FAFDF8B8348D98B810F900F901D
:102CB0000F90DF91CF911F910F9108950F931F9364
:102CC000CF93DF931F921F92CDB7DEB7182F00E08E
:102CD00021E040E059E06DE370E0CE01019658DF5D
:102CE00089819A8110D940E150E0612F88E595E112
:102CF0006DD56FEF812FACDF20D90F900F90DF9152
:102D0000CF911F910F910895CF92DF92EF92FF9292
:102D10000F931F93CF93DF931F921F92CDB7DEB710
:102D2000182FD62E7A01C22E8FEF860F853070F5C0
:102D3000812FC4DF00E021E040E059E06DE370E066
:102D4000CE01019625DF89819A81DDD84D2D4C2950
:102D500060E070E0812F62DFE114F10411F0B7014F
:102D60000AC060915615709157156F5F7F4F709331
:102D7000571560935615812F5CDF41E050E0612FBD
:102D800088E595E123D5D9D881E001C080E00F9096
:102D90000F90DF91CF911F910F91FF90EF90DF90F7
:102DA000CF9008950F931F93CF93DF931F921F929D
:102DB000CDB7DEB7182F00E021E040E059E06DE329
:102DC00070E0CE010196E4DE89819A819CD863E0AF
:102DD00070E0812F17DF833119F0AFD880E008C091
:102DE00042E050E0612F88E595E1F0D4A6D881E07B
:102DF0000F900F90DF91CF911F910F910895CF9277
:102E0000DF92EF92FF920F931F93CF93DF931F9266
:102E10001F92CDB7DEB7182F7B016A01FB018081BD
:102E20008F3F51F481818F3F99F482818F3F81F4EC
:102E300083818F3F69F42AC081110AC0FB0181811F
:102E4000811106C08281811103C083818823F1F042
:102E5000C114D104D9F000E021E040E059E06DE375
:102E600070E0CE01019694DE89819A814CD8B70139
:102E7000812FC0DEB601812FEFDE44E050E0612FEC
:102E800088E595E1A3D459D881E001C080E00F9096
:102E90000F90DF91CF911F910F91FF90EF90DF90F6
:102EA000CF9008950F931F93CF93DF931F921F929C
:102EB000CDB7DEB7182F00E021E040E059E06DE328
:102EC00070E0CE01019664DE89819A811CD848E0C9
:102ED00050E0612F88E595E179D42FD80F900F90BD
:102EE000DF91CF911F910F910895BF92CF92DF9202
:102EF000EF92FF920F931F93CF93DF9300D0CDB744
:102F0000DEB7B82E6B017A01413088E0580718F01F
:102F1000E12C98E0F92E00E021E040E059E06DE37B
:102F200070E0CE01019634DE89819A810E94830F80
:102F30006B2D88E595E1D1D28C0163E070E08B2D9B
:102F400061DE8B830E949D0F8B81873111F08C3164
:102F500031F40E94CC220E151F05E8F202C0E12CCC
:102F6000F12C00E021E040E059E06DE370E0CE019B
:102F700001960EDE89819A810E94830F9701A60136
:102F80006B2D88E595E15CD340E250E06B2D88E540
:102F900095E11CD48B2D3FDE84FD1FC063E070E003
:102FA0008B2D30DE811107C00E949D0F8B2D86DE98
:102FB00080E090E018C00E949D0F0E94CC2200E0AB
:102FC00021E040E059E06DE370E0CE010196E0DDE4
:102FD00089819A810E94830FDDCF60E18B2D38DEDD
:102FE0000E949D0FC7010F900F900F90DF91CF911E
:102FF0001F910F91FF90EF90DF90CF90BF900895B9
:10300000AF92BF92CF92DF92EF92FF920F931F93F6
:10301000CF93DF931F921F92CDB7DEB7182F5B01BE
:103020006A0100E021E040E059E06DE370E0CE018C
:103030000196AEDD89819A810E94830F612F88E518
:1030400095E17BD27C01009799F463E070E0812FD9
:10305000D9DD843109F18823F9F021E030E08C31A9
:1030600011F420E030E0EE24FF24E21AF30A14C049
:10307000C816D9060CF476011E141F046CF400E087
:103080009701A501612F88E595E155D340E450E013
:10309000612F88E595E19AD30E949D0FC7010F909B
:1030A0000F90DF91CF911F910F91FF90EF90DF90E4
:1030B000CF90BF90AF9008950F931F93CF93DF935E
:1030C00000D01F92CDB7DEB7182F00E021E040E01E
:1030D00059E06DE370E0CE0101965ADD89819A8155
:1030E0000E94830F612F88E595E127D28B839C8313
:1030F0000E949D0F8B819C810F900F900F900F90DD
:10310000DF91CF911F910F910895EF92FF920F934E
:103110001F93CF93DF931F921F92CDB7DEB7182F67
:103120007B0100E021E040E059E06DE370E0CE017A
:1031300001962EDD89819A810E94830F01E021E0B2
:1031400030E0A701612F88E595E1F5D20E949D0F3F
:1031500081E090E00F900F90DF91CF911F910F9140
:10316000FF90EF90089508959F92AF92BF92CF92F3
:10317000DF92EF92FF920F931F93CF93DF931F92F3
:103180001F92CDB7DEB7982E6B015A01790100E08E
:1031900021E040E059E06DE370E0CE010196F8DCFB
:1031A00089819A810E94830F692D88E595E195D1E7
:1031B0008E159F0528F4692D88E595E18ED17C0157
:1031C00087019501A601692D88E595E1D0D10E947E
:1031D0009D0FC7010F900F90DF91CF911F910F911D
:1031E000FF90EF90DF90CF90BF90AF909F900895A9
:1031F000CF92DF92EF92FF920F931F93CF93DF93C3
:103200001F921F92CDB7DEB7182F7B016A01FB0119
:103210008081811109C08181811106C08281811163
:1032200003C083818823D9F0C114D104C1F000E028
:1032300021E040E059E06DE370E0CE010196A8DCAA
:1032400089819A810E94830FB701812FD3DCB60157
:10325000812F02DD0E949D0F81E090E002C080E09E
:1032600090E00F900F90DF91CF911F910F91FF9001
:10327000EF90DF90CF9008950F931F93CF93DF933C
:103280001F921F92CDB7DEB7182F00E021E040E07B
:1032900059E06DE370E0CE0101967ADC89819A8174
:1032A0000E94830F40E250E0612F88E595E18ED2C5
:1032B000812FB1DC84FD1EC0812FADDC83FF08C0EF
:1032C00068E1812FC5DC0E949D0F80E090E019C06D
:1032D0000E949D0F0E94CC2200E021E040E059E0D6
:1032E0006DE370E0CE01019653DC89819A810E94E2
:1032F000830FDECF60E1812FABDC0E949D0F81E068
:1033000090E00F900F90DF91CF911F910F91089552
:103310008EBD00000DB407FEFDCF8EB508952C982C
:1033200008952C9A08951F93CF93DF931F921F92B5
:10333000CDB7DEB7182F6A839983F1DF80EFE8DF1E
:103340009981892FE5DF812FE3DF6A81862FE0DF16
:10335000E8DF81E00F900F90DF91CF911F910895EA
:10336000CF93DF93EC016CE271E080E090E00E948B
:1033700046233AD2249A80916A15882399F09FB700
:10338000F89480916A15813059F48DB38093681553
:103390002DB380916915809582238DBB9FBF02C09C
:1033A0009093681580E58CBD1DBC60E880E090E0DE
:1033B000BADF65E58BE190E0B6DF65E58AE190E094
:1033C000B2DF80916A15882361F09FB7F89420914D
:1033D0006A1580916815213019F48DBB9FBF01C01B
:1033E0008FBF80E090E49983888380E090E699879E
:1033F000888780E098E49B838A8380E098E69B87B7
:103400008A8780E090E59D838C8380E090E79D87AC
:103410008C8780E098E59F838E8380E098E79F8784
:103420008E87DF91CF910895CF92DF92EF92FF9236
:103430000F931F93CF93DF93EC017A018B016C0103
:10344000C40ED51ECC15DD0571F069DF80EF60DF9D
:103450008D2F5EDF8C2F5CDF2196F80181918F012B
:1034600057DF5FDFEFCFC701DF91CF911F910F9142
:10347000FF90EF90DF90CF9008951F93CF93DF934D
:103480001F92CDB7DEB7182F998349DF8FE040DF59
:103490009981892F3DDF812F3BDF80E039DF8983F0
:1034A00040DF89810F90DF91CF911F9108951F9385
:1034B000CF93DF93182F60E270E0A4DBC82FD0E039
:1034C00061E270E0812F9EDBDC2FCC279E01282B50
:1034D000C901DF91CF911F910895FF920F931F9320
:1034E000CF93DF93F62EC0E0D0E08F2DE0DF8C018C
:1034F000009719F08F2DDBDFEC01C017D107A9F77A
:10350000CE01DF91CF911F910F91FF9008951F93EE
:10351000CF93DF93182F66E270E074DBC82FD0E002
:1035200067E270E0812F6EDBDC2FCC279E01282B19
:10353000C901DF91CF911F910895FF920F931F93BF
:10354000CF93DF93F62EC0E0D0E08F2DE0DF8C012B
:10355000009719F08F2DDBDFEC01C017D107A9F719
:10356000CE01DF91CF911F910F91FF9008956F923F
:103570007F929F92AF92BF92CF92DF92EF92FF9293
:103580000F931F93CF93DF931F92CDB7DEB7D82E43
:10359000962E3A01590164E270E0892D998332DB5D
:1035A000E82EF12C65E270E0892D2CDBFE2CEE2458
:1035B000E82AE60CF71C970137706D2C9981792E5B
:1035C000690C711C690C711CD301ED91FC91E20F27
:1035D000F31FC901800F911F8130984098F0C12CD2
:1035E00048E0D42EC21AD30AA601B501CF011CDFD0
:1035F000A8014C195D09B5016C0D7D1DF301808199
:10360000918103C0A801B501CF010EDFE00EF11ECC
:103610004F2D64E270E0892D01DB4E2D65E270E0F4
:10362000892D0F90DF91CF911F910F91FF90EF9017
:10363000DF90CF90BF90AF909F907F906F90EECA39
:103640000F931F9389019A0140E050E090DF1F9192
:103650000F910895CF92DF92EF92FF920F931F93F5
:10366000CF93DF93EC017A018B016C01C40ED51E60
:10367000CC15DD0579F053DE8FE04ADE8D2F48DE74
:103680008C2F46DE219680E043DEF80181938F0186
:1036900048DEEECFC701DF91CF911F910F91FF90D0
:1036A000EF90DF90CF900895AF92BF92CF92DF92CC
:1036B000EF92FF920F931F93CF93DF931F921F926E
:1036C000CDB7DEB75A8349835901E981FA81F77092
:1036D0007C01E60EF11CE60EF11CD70118968D91C7
:1036E0009C9119978E0F9F1F98012E0F3F1F21301D
:1036F000384090F0C12C68E0D62ECE1ADF0AA60121
:10370000B501A8DFA8014C195D09B5016C0D7D1D3F
:10371000F7018085918502C0A801B5010F900F9037
:10372000DF91CF911F910F91FF90EF90DF90CF909D
:10373000BF90AF908FCF8F929F92AF92BF92CF9258
:10374000DF92EF92FF920F931F93CF93DF936C0161
:10375000962E5A017901802E68E270E0892D52DAA6
:10376000C82FD0E069E270E0892D4CDADC2FCC273D
:10377000C82B87019501AE01692DC60195DF811027
:1037800018C0CE0DDF1D4D2F68E270E0892D46DA9E
:103790004C2F69E270E0892DDF91CF911F910F913D
:1037A000FF90EF90DF90CF90BF90AF909F908F9061
:1037B00035CADF91CF911F910F91FF90EF90DF906D
:1037C000CF90BF90AF909F908F900895CF93C62FCA
:1037D00061E070E08C2F22DA61E070E08C2F12DA69
:1037E0008111FACFCF910895CF93CFB7F8948091FC
:1037F0006B15811127C0EFEEF1E08491E9EAF1E069
:103800009491E82FF0E0EE0FFF1FEC5CFD4FA591C7
:10381000B4918C91892321F461E085E30E948A248C
:1038200061E085E30E9451248CB580618CBD8CB52C
:1038300080648CBD61E084E30E94512461E083E3F5
:103840000E94512480916B158F5F80936B15CFBFC1
:10385000CF91089580919C1590E020919D15821B39
:103860009109089520919D1580919C15281750F479
:10387000E22FF0E0E256FA4E808190E02F5F209335
:103880009D1508958FEF9FEF0895E0919D1580910C
:103890009C15E81730F4F0E0E256FA4E808190E093
:1038A00008958FEF9FEF08950895CF92DF92EF92E2
:1038B000FF920F931F93CF93DF937C01CB018A017B
:1038C00020917815222389F0EB016B01C40ED51EDF
:1038D000CC15DD0561F06991D701ED91FC91019066
:1038E000F081E02DC7011995F3CF642F36D1C801BF
:1038F000DF91CF911F910F91FF90EF90DF90CF90CC
:103900000895CF93DF931F92CDB7DEB769832091DF
:1039100078152223D1F020917915203240F021E052
:1039200030E0FC013383228380E090E014C080917A
:103930007A15E82FF0E0E558FA4E998190838F5F71
:1039400080937A158093791504C061E0CE010196C9
:1039500004D181E090E00F90DF91CF910895FC01B8
:103960001382128248EE53E060E070E04483558396
:103970006683778384E594E1918380830895109230
:103980009D1510929C1510927A151092791532C0DF
:10399000862F413208F040E26EE975E147D010927F
:1039A0009D1580939C15089521E0F2CF21E0F0CF82
:1039B00081E08093781560939B1510927A15109290
:1039C00079150895F5CF0F93062F21E040917915D1
:1039D0006BE775E180919B156DD010927A1510926E
:1039E0007915109278150F91089561E0ECCF8CE66F
:1039F00095E1B5CF10922B1681E080932916109295
:103A0000281661E084E186D761E085E183D7E9EBA0
:103A1000F0E080818E7F808380818D7F808388E449
:103A20008093B80085E48093BC000895413208F08B
:103A30003FC090912B169111FCCF91E090932B16E3
:103A4000209329162FEF2093BE1510920316240FF2
:103A50002093021690932A1690912A16880F892B8C
:103A600080932A1680912816813041F410922816EE
:103A700080912A168093BB0085EC01C085EE80936F
:103A8000BC0080912B168130E1F3809103168417DE
:103A900010F44091031624E036E1FB01D9018A2F8E
:103AA000821B841718F48D918193F9CF842F089588
:103AB00080E008950F93413208F046C090912B1694
:103AC0009111FCCF92E090932B16009329169FEF53
:103AD0009093BE151092031640930216FB0164E00A
:103AE00076E1DB019A2F961B941718F491919D9320
:103AF000F9CF10922A1690912A16880F892B80935D
:103B00002A1680912816813041F41092281680914F
:103B10002A168093BB0085EC01C085EE8093BC0023
:103B2000222321F080912B168230E1F38091BE1583
:103B30008F3F61F08091BE15803251F08091BE15AB
:103B4000803341F483E007C081E005C080E003C01A
:103B500082E001C084E00F910895613298F42091D1
:103B60002B16243089F46093E015FC0182EE95E178
:103B7000DC012A2F281B261718F421912D93F9CF49
:103B800080E0089581E0089582E0089585ED8093B6
:103B9000BC008091BC0084FDFCCF10922B160895D0
:103BA00085EC8093BC0010922B1608951F920F9203
:103BB0000FB60F9211240BB60F922F933F934F9392
:103BC0005F936F937F938F939F93AF93BF93EF9385
:103BD000FF938091B900887F803609F49CC068F516
:103BE000883209F45BC090F4803109F454C038F491
:103BF000882309F4F3C0883009F44DC0F2C088313D
:103C000009F44CC0803209F45DC0EBC0803409F483
:103C100068C048F4803309F455C0883309F0E1C026
:103C20008093BE15A7C0803509F44FC0883509F4CC
:103C30005DC0883409F0D5C0D3C0883909F4C4C048
:103C4000A8F4883709F467C038F4883609F463C0EB
:103C5000803709F460C0C5C0883809F4B5C0803920
:103C600009F45FC0803809F0BCC05BC0803B09F438
:103C700083C038F4803A09F466C0883A09F47CC0FD
:103C8000B0C0803C09F4A4C0883C09F4A1C0883BC2
:103C900009F487C0A6C080912A1610C0909103161F
:103CA00080910216981770F5E091031681E08E0F4F
:103CB00080930316F0E0EC5FF94E80818093BB00A7
:103CC00085EC83C08093BE158BC0E091031681E024
:103CD0008E0F809303168091BB00F0E0EC5FF94EED
:103CE000808390910316809102166BC0E0910316B9
:103CF00081E08E0F809303168091BB00F0E0EC5FB3
:103D0000F94E80838091291681116AC081E08093E9
:103D1000281684EA5EC083E080932B161092BF15AC
:103D2000CFCF8091BF15803208F04EC0E091BF1513
:103D300081E08E0F8093BF158091BB00F0E0E054CE
:103D4000FA4E8083BDCF8091BF15803230F4E09170
:103D5000BF15F0E0E054FA4E108218DF6091BF15F5
:103D600070E0E0912416F091251680EC95E119950C
:103D70001092BF1515DF35C084E080932B1610928A
:103D8000E1151092E015E0912616F091271619958D
:103D90008091E015811105C081E08093E0151092BB
:103DA000E215E091E11581E08E0F8093E115F0E0DE
:103DB000EE51FA4E80818093BB009091E115809185
:103DC000E015981708F47CCF85E88093BC0009C003
:103DD00085EC8093BC0010922B1603C01092BE1588
:103DE000D5DEFF91EF91BF91AF919F918F917F9120
:103DF0006F915F914F913F912F910F900BBE0F905C
:103E00000FBE0F901F901895FC0112828FEF8183D7
:103E1000108213820895FC018381882331F061119F
:103E200003C08FEF8183089511820895CF93DF93AC
:103E3000EC016A838CE695E1A2DD41E06A818CE6C3
:103E400095E1B2DD91E0811101C090E09B838CE6A9
:103E500095E108DD88838B8190E0DF91CF91089513
:103E6000CF93DF93EC018B81882391F0898180953A
:103E7000862388836A818CE695E19ADD68818CE6E9
:103E800095E13FDD8CE695E1B0DD282F30E002C002
:103E900020E030E081E090E0232B11F080E090E022
:103EA000DF91CF91089508950895DC01ED91FC9183
:103EB0000284F385E02D41E0199581E090E00895BA
:103EC000FC011382128224E634E1318320830895B9
:103ED000DC01ED91FC910084F185E02D6FEF1994E8
:103EE000DC01ED91FC910284F385E02D40E0199412
:103EF00061E0F6DF80ED97E0EEC362E0F1DF80ED98
:103F000097E0E9C3CF93DF93CDB7DEB728970FB61D
:103F1000F894DEBF0FBECDBF1D8220E42E8334E1B6
:103F20003F8334E5388719822A8320E12B8320E5FB
:103F30002C83FC012781421710F04FEF420FFC0148
:103F4000308550E0FE01E40FF51F303121F42430BC
:103F500011F4218101C02581260F2068622F289647
:103F60000FB6F894DEBF0FBECDBFDF91CF91B8CFB3
:103F7000FC016581262F246025836C60B1CFCF932F
:103F8000DF93EC01423018F08C8188608C834F8382
:103F90006887222329F0413019F48C8184608C8356
:103FA00064E670E080E090E071D36C8164FD2EC027
:103FB000E881F9810284F385E02D42E063E0CE01DF
:103FC000199584E991E187D3E881F9810284F38529
:103FD000E02D42E063E0CE01199584E991E17BD3C5
:103FE000E881F9810284F385E02D42E063E0CE01AF
:103FF000199586E990E06FD3E881F9810284F38511
:10400000E02D42E062E0CE01199511C06062CE0160
:1040100067DF84E991E15FD36C816062CE0160DF8C
:1040200086E990E058D36C816062CE0159DF6C81E3
:104030006062CE0155DF84E08D83CE0199DFCE0131
:1040400057DF82E08E8366E0CE014ADFCE01DF914A
:10405000CF913ECF21E001C0220F6A95EAF7DC0143
:104060001C962C931C971A965C934E931997ED917E
:10407000FC910084F185E02D60E01994FC01248519
:10408000222391F081859285009719F4611105C072
:1040900006C0019721F4611102C0258701C0158671
:1040A0006585CF010E96DCCE08950F931F93CF93B5
:1040B000DF93EC018C01025F1F4F6B85C801B6DEF8
:1040C000019751F461E0C801A6DE1C8260E0C801DE
:1040D000C7DE81E090E002C080E090E0DF91CF9108
:1040E0001F910F9108958F92AF92CF92EF920F93FD
:1040F000CF93DF93CDB7DEB7FC01638714861586B7
:104100001286118681E0982F01C0990F4A95EAF72F
:10411000928B982F01C0990F2A95EAF7938B982FCD
:1041200001C0990F0A95EAF7948B982F01C0990F57
:10413000EA94EAF7958B982F01C0990FCA94EAF791
:10414000968B982F01C0990FAA94EAF7978B01C01C
:10415000880F8A94EAF7808FDF91CF910F91EF90CB
:10416000CF90AF908F9008956F927F928F92AF9281
:10417000CF92EF920F93CF93DF9300D0CDB7DEB7FE
:104180003C012B834A8369839BDE84E794E1F3013E
:1041900091838083C3010E9637DE2B814A8169812A
:1041A000C301A1DF0F900F900F90DF91CF910F917E
:1041B000EF90CF90AF908F907F906F900895FF9287
:1041C0000F931F93CF93DF93EC01F62E8C01025FC8
:1041D0001F4F6A896F29C80143DE6A8960956F2184
:1041E000C801DF91CF911F910F91FF9039CE20E050
:1041F00030E050E060FF05C0FC01E20FF31F75895D
:10420000572B66952F5F3F4F2430310599F741308A
:1042100011F4FC014489FC016585652B642BCFCF2B
:104220000F931F93CF93DF93EC01142F062F0F7082
:10423000423011F440E009C070E084E07595679564
:104240008A95E1F7CE01D3DF412F602FCE01DF91B8
:10425000CF911F910F91CBCF0F931F93CF93DF93EC
:1042600000D0CDB7DEB78C012B834A8369831DDF75
:104270002B814A816981C8010F900F900F90DF91C7
:10428000CF911F910F917BCEFC01208120532A30CA
:1042900008F020E0FC0181818053FAE02F9F800D1F
:1042A00011240895DC01ED91FC910190F081E02D45
:1042B0001994CF92DF92EF92FF920F931F93CF93B7
:1042C000DF93EC017B016A01CB010996DDDF888376
:1042D000F7010081112707FD1095212F312FF801DB
:1042E000E154F109E331F10558F5EE58FF4F0C9414
:1042F000F42CF7018181813639F082818E3611F4F8
:1043000086E01DC087E01BC081E019C082E017C0B5
:10431000F7018281823711F484E011C088E00FC078
:10432000F7018281823711F483E009C085E007C07C
:1043300089E005C08AE003C08BE001C08CE089837E
:10434000C7010496A1DF8A83C6019EDF8B83C60165
:1043500003969ADF8C83C601069696DF8D83DF91E4
:10436000CF911F910F91FF90EF90DF90CF90089524
:1043700081E00895CF93DF9368E670E08CE695E1E5
:1043800021DB60E070E08CE695E18CDF8CE695E166
:104390002CDB41E050E068E670E08CE695E106DB5E
:1043A0008CE695E15FDA87FB882780F9C82F80E0EB
:1043B000D82F81E0C8278C2FDF91CF910895CF921D
:1043C000DF92EF92FF920F931F93CF93DF93EC0155
:1043D00068E670E08CE695E1F5DA60E070E08CE686
:1043E00095E160DF8CE695E100DB47E050E068E6B0
:1043F00070E08CE695E1DADA8CE695E133DA8F77D6
:10440000982F92959F701AEF082F919F000D1124FD
:104410008CE695E127DA9C013327F4E03595279562
:10442000FA95E1F7F82E129FF00C11248CE695E135
:1044300019DA9C013327A4E035952795AA95E1F771
:10444000E82E129FE00C11248CE695E10BDA8CE645
:1044500095E108DA9C013327B4E035952795BA95A4
:10446000E1F7D82E129FD00C11248CE695E1FAD9F1
:104470009C01332794E0359527959A95E1F7C82E4E
:10448000129FC00C11248CE695E1ECD99C013327D6
:1044900044E0359527954A95E1F7129F800D112448
:1044A0008883C982DA82EB82FC820D83CE01DF91A0
:1044B000CF911F910F91FF90EF90DF90CF900895D3
:1044C0001F93CF93DF93EC0168E670E08CE695E1F3
:1044D00079DA60E070E08CE695E1E4DE2D811AE0A7
:1044E000822F612F0E94C62C682F660F680F660FFF
:1044F000620F8CE695E105DA2C81822F612F0E94F4
:10450000C62C682F660F680F660F620F8CE695E168
:10451000F8D92B81822F612F0E94C62C682F660F3D
:10452000680F660F620F8CE695E1EBD960E08CE6D0
:1045300095E1E7D92A81822F612F0E94C62C682F2E
:10454000660F680F660F620F8CE695E1DAD9298154
:10455000822F612F0E94C62C682F660F680F660F8E
:10456000620F8CE695E1CDD92881822F612F0E94C0
:10457000C62C682F660F680F660F620F8CE695E1F8
:10458000C0D960E070E08CE695E18CDE8CE695E1C8
:10459000DF91CF911F9129CA08951F920F920FB6F4
:1045A0000F9211242F933F938F939F93AF93BF93B9
:1045B00080912D1690912E16A0912F16B091301645
:1045C00030912C1623E0230F2D3720F40196A11DE6
:1045D000B11D05C026E8230F0296A11DB11D209331
:1045E0002C1680932D1690932E16A0932F16B09311
:1045F00030168091311690913216A0913316B091F9
:1046000034160196A11DB11D809331169093321678
:10461000A0933316B0933416BF91AF919F918F91B1
:104620003F912F910F900FBE0F901F9018952FB7AD
:10463000F89460912D1670912E1680912F169091FE
:1046400030162FBF08953FB7F8948091311690919E
:104650003216A0913316B091341626B5A89B05C02A
:104660002F3F19F00196A11DB11D3FBF6627782F7E
:10467000892F9A2F620F711D811D911D42E0660FD7
:10468000771F881F991F4A95D1F70895CF92DF921F
:10469000EF92FF92CF93DF936B017C01D4DFEB01AC
:1046A000C114D104E104F10479F076DFCCDF6C1B96
:1046B0007D0B683E7340A0F381E0C81AD108E10881
:1046C000F108C851DC4FECCFDF91CF91FF90EF9014
:1046D000DF90CF9008958230910538F0880F991FB0
:1046E000880F991F05970197F1F70895789484B57D
:1046F000826084BD84B5816084BD85B5826085BDDE
:1047000085B5816085BDEEE6F0E0808181608083C3
:10471000E1E8F0E0108280818260808380818160A6
:104720008083E0E8F0E0808181608083E1EBF0E06D
:10473000808184608083E0EBF0E080818160808311
:10474000E1E9F0E080818260808380818160808304
:10475000E0E9F0E0808181608083E1EAF0E080813F
:1047600082608083808181608083E0EAF0E08081E4
:1047700081608083E1E2F1E08081826080838081DA
:1047800081608083E0E2F1E0808181608083EAE7FC
:10479000F0E080818460808380818260808380817A
:1047A000816080838081806880831092C100089539
:1047B000863308F0865320917B00982F9870277FCE
:1047C000922B90937B0087702091430290E4299F65
:1047D00090011124822B80937C0080917A00806468
:1047E00080937A0080917A0086FDFCCF80917800DA
:1047F0002091790090E0922B089590E0FC01319790
:10480000E231F10508F04CC0EB57FF4F0C94F42C4B
:10481000809180008F7703C0809180008F7D80938E
:104820008000089580918000877FF9CF84B58F77CD
:1048300002C084B58F7D84BD08958091B0008F77CC
:1048400003C08091B0008F7D8093B0000895809167
:1048500090008F7707C0809190008F7D03C080917A
:104860009000877F8093900008958091A0008F77BB
:1048700007C08091A0008F7D03C08091A000877F3A
:104880008093A0000895809120018F7707C08091C8
:1048900020018F7D03C080912001877F80932001BC
:1048A0000895CF93DF9390E0FC01EC58FE4F2491E4
:1048B000FC01E654FE4F8491882349F190E0880F73
:1048C000991FFC01EC5CFD4FA591B491865E9D4F54
:1048D000FC01C591D4919FB7611108C0F8948C91E7
:1048E000209582238C93888182230AC0623051F400
:1048F000F8948C91322F309583238C938881822B6E
:10490000888304C0F8948C91822B8C939FBFDF9195
:10491000CF9108950F931F93CF93DF931F92CDB73D
:10492000DEB7282F30E0F901E25DFE4F8491F901F6
:10493000EC58FE4F1491F901E654FE4F0491002308
:10494000C1F0882319F0698358DF6981E02FF0E016
:10495000EE0FFF1FE65EFD4FA591B4919FB7F8944F
:104960008C91611103C01095812301C0812B8C9320
:104970009FBF0F90DF91CF911F910F910895CF931B
:10498000DF93282F30E0F901E25DFE4F8491F901B9
:10499000EC58FE4FD491F901E654FE4FC491CC235C
:1049A00089F081112ADFEC2FF0E0EE0FFF1FE050BD
:1049B000FE4FA591B4912C912D2381E090E021F43C
:1049C00080E002C080E090E0DF91CF9108950E94E6
:1049D000092FFC01818D228D90E0805C9F4F821B0E
:1049E00091098F7399270895FC01918D828D9817F5
:1049F00031F0828DE80FF11D858D90E008958FEFE5
:104A00009FEF0895FC01918D828D981761F0828D42
:104A1000DF01A80FB11D5D968C91928D9F5F9F73F2
:104A2000928F90E008958FEF9FEF089587EB96E2C5
:104A3000892B39F080E090E0892B19F098D1811111
:104A400025C080E090E0892B41F080E090E0892B48
:104A500021F00E94000081111CC080E090E0892BB1
:104A600041F080E090E0892B21F00E94000081114C
:104A700013C080E090E0892BA1F080E090E0892BCA
:104A800081F00E94000081110AC008950E94000078
:104A9000D8CF0E940000E1CF0E940000EACF0C9422
:104AA00000000895FC01848DDF01A80FB11DA35AF9
:104AB000BF4F2C91848D90E001968F739927848F3E
:104AC000A689B7892C93A089B1898C9180648C9335
:104AD000938D848D981306C00288F389E02D808120
:104AE0008F7D80830895CF93DF93EC01888D882399
:104AF000C1F0EA89FB89808185FD05C0A889B98953
:104B00008C9186FD0EC00FB607FCF5CF808185FF26
:104B1000F2CFA889B9898C9185FFEDCFCE01C2DF94
:104B2000E8CFDF91CF910895CF92DF92FF920F935C
:104B30001F93CF93DF931F92CDB7DEB76C0181E057
:104B4000D60158968C9358975B969C915B975C9690
:104B50008C915C97981307C05096ED91FC915197FA
:104B6000808185FD2DC0F601038D10E00F5F1F4F82
:104B70000F731127F02EF601848DF81210C00FB6B6
:104B800007FCF9CFD6015096ED91FC9151978081A9
:104B900085FFF1CFC601698385DF6981ECCF838D05
:104BA000E80FF11DE35AFF4F6083D6015B960C932B
:104BB0005B975296ED91FC915397808180620CC077
:104BC000D6015696ED91FC91579760835096ED91E2
:104BD000FC91519780818064808381E090E00F9008
:104BE000DF91CF911F910F91FF90DF90CF900895AB
:104BF000BF92CF92DF92EF92FF92CF93DF93EC01BF
:104C00006A017B01B22EE889F98982E0808341152F
:104C100081EE58076105710599F060E079E08DE358
:104C200090E0A7019601BED62150310941095109F2
:104C30005695479537952795211580E1380790F0CF
:104C4000E889F989108260E874E88EE190E0A701B4
:104C50009601A8D621503109410951095695479529
:104C600037952795EC85FD853083EE85FF8520837C
:104C7000188EEC89FD89B082EA89FB898081806188
:104C80008083EA89FB89808188608083EA89FB8947
:104C9000808180688083EA89FB8980818F7D808321
:104CA000DF91CF91FF90EF90DF90CF90BF9008956C
:104CB0001F920F920FB60F9211240BB60F922F93E3
:104CC0008F939F93EF93FF93E0914516F0914616D3
:104CD0008081E0914B16F0914C1682FD12C09081BC
:104CE00080914E168F5F8F7320914F16821751F06F
:104CF000E0914E16F0E0EB5CF94E958F80934E16E6
:104D000001C08081FF91EF919F918F912F910F9022
:104D10000BBE0F900FBE0F901F9018951F920F9211
:104D20000FB60F9211240BB60F922F933F934F9310
:104D30005F936F937F938F939F93AF93BF93EF9303
:104D4000FF9385E396E1AEDEFF91EF91BF91AF91C6
:104D50009F918F917F916F915F914F913F912F9193
:104D60000F900BBE0F900FBE0F901F90189585E30C
:104D700096E12FDE21E0892B09F420E0822F0895AF
:104D8000109238161092371688EE93E0A0E0B0E04B
:104D90008093391690933A16A0933B16B0933C1625
:104DA00084E894E1909336168093351685EC90E074
:104DB000909342168093411684EC90E090934416B1
:104DC0008093431680EC90E09093461680934516AE
:104DD00081EC90E0909348168093471682EC90E027
:104DE00090934A168093491686EC90E090934C1667
:104DF00080934B1610924E1610924F16109250162A
:104E0000109251160895AF92BF92CF92DF92EF9217
:104E1000FF920F931F93CF93DF936C017B01C0E050
:104E2000D0E000E010E0F601EC0FFD1F4AE050E09A
:104E30006281C701AED15C016EE2C701B5D08A0DB7
:104E40009B1D080F191F2196C330D10561F74AE059
:104E500050E0F6016581C7019CD1800F911FDF9161
:104E6000CF911F910F91FF90EF90DF90CF90BF9067
:104E7000AF90089524E934E1FC013183208312824C
:104E800013821482158208950F93FC0184E994E142
:104E90009183808362834383248305830F910895E4
:104EA00024E934E1FC0131832083FB0140815181FD
:104EB00062817381FC014283538364837583089507
:104EC000FB014081518162817381FC0142835383E4
:104ED00064837583089584E994E19093D316809355
:104EE000D2161092D4161092D5161092D616109291
:104EF000D71608950895FADBFDDF0E94D80BC6E1AE
:104F0000D5E20E942F092097E1F390DDFACFCF92EE
:104F1000DF92EF92FF920F931F93CF93DF936C0179
:104F20007A01EB01E60EF71E00E010E0CE15DF057A
:104F300061F06991D601ED91FC910190F081E02D35
:104F4000C6011995080F191FF1CFC801DF91CF9144
:104F50001F910F91FF90EF90DF90CF900895611512
:104F6000710581F0DB010D900020E9F7AD014150A2
:104F70005109461B570BDC01ED91FC910280F38136
:104F8000E02D199480E090E00895DC01ED91FC9112
:104F9000DB0114964D915C9115976D917C91028087
:104FA000F381E02D1994DBCFDC01ED91FC910190B0
:104FB000F081E02D1994DB01ED91FC9111970190A6
:104FC000F081E02DBC01CD01199466E974E1C7CFF1
:104FD0000F931F93CF93DF93EC01D7DF8C01CE01AA
:104FE000F4DF800F911FDF91CF911F910F910895F2
:104FF0000F931F93CF93DF93EC01B1DF8C01CE01B0
:10500000E4DF800F911FDF91CF911F910F910895E1
:105010000F931F93CF93DF93EC01CDDF8C01CE0173
:10502000D4DF800F911FDF91CF911F910F910895D1
:105030008F929F92AF92BF92CF92DF92EF92FF92A8
:105040000F931F93CF93DF93CDB7DEB7A1970FB622
:10505000F894DEBF0FBECDBF7C01C42EE52FCB017F
:10506000D22E19A221E02D1510F02AE0D22E8E01A9
:105070000F5D1F4F8D2C912CA12CB12C6C2D7E2FF0
:10508000A50194018FD48C2DD29E8019112401503A
:1050900011098A3014F4805D01C0895CF8018083B5
:1050A000211531054105510521F0C22EE32FCA011A
:1050B000E5CFB801C70153DFA1960FB6F894DEBF64
:1050C0000FBECDBFDF91CF911F910F91FF90EF9059
:1050D000DF90CF90BF90AF909F908F900895CF9228
:1050E000DF92EF92FF920F931F93CF93DF93EC0128
:1050F0006A017B012115310579F4E881F98101907C
:10510000F081E02D642FDF91CF911F910F91FF90DF
:10511000EF90DF90CF9019942A303105D9F477FFC2
:1051200018C06DE241DF8C0144275527BA014C19A4
:105130005D096E097F092AE0CE017ADF800F911F99
:10514000DF91CF911F910F91FF90EF90DF90CF9063
:1051500008952AE0B701A601CE01DF91CF911F91FA
:105160000F91FF90EF90DF90CF9062CF9A01AB014B
:10517000662757FD6095762FB2CF2115310541F492
:10518000DC01ED91FC910190F081E02D642F1994E8
:105190004FCF9A01462F50E060E070E0EECF9A01C9
:1051A000AB0160E070E0E9CF4F925F926F927F9227
:1051B0008F929F92AF92BF92CF92DF92EF92FF9227
:1051C0000F931F93CF93DF93EC016A017B01B22E03
:1051D0009A01AB01C701B601D5D3882319F069E95B
:1051E00074E124C026013701E89477F82FEF3FEFF0
:1051F0004FE75FE7C301B201C5D381110CC02FEFA8
:105200003FEF4FE75FE7C301B20106D218161CF467
:105210006DE974E10BC02FEF3FEF4FE75FE4C7018B
:10522000B60149D31816A4F461EA74E1CE01DF9106
:10523000CF911F910F91FF90EF90DF90CF90BF9093
:10524000AF909F908F907F906F905F904F9087CEA0
:105250002FEF3FEF4FE75FECC701B601DDD187FDD0
:10526000E3CF20E030E0A901C701B601D5D187FF27
:1052700009C06DE2CE0198DE8C01F7FAF094F7F8E0
:10528000F09402C000E010E0A12C60E070E080E04B
:105290009FE3AB1439F020E030E040E251E4C0D1AC
:1052A000A394F7CF9B01AC01C701B60151D16B01AB
:1052B0007C0123D22B013C014CD29B01AC01C701E4
:1052C000B60145D16B017C012AE0B301A201CE01F8
:1052D000AFDE080F191FBB2031F06CE573E1CE0182
:1052E0003EDE080F191F7B2C772019F120E030E0FB
:1052F00040E251E4C701B601E2D26B017C01F8D172
:105300004B01AA2497FCA094BA2C2AE030E0B50106
:10531000A401CE01E4DE080F191FC501B4011BD2A0
:105320009B01AC01C701B60112D16B017C017A94DB
:10533000DBCFC801DF91CF911F910F91FF90EF90CC
:10534000DF90CF90BF90AF909F908F907F906F90A5
:105350005F904F90089528CFFC0180819181E6C332
:10536000CF93DF93EC0188819981009709F0DED318
:10537000198218821D821C821B821A82DF91CF91B2
:1053800008950F931F93CF93DF93EC018B016F5F11
:105390007F4F8881998159D4009731F09983888310
:1053A0001B830A8381E001C080E0DF91CF911F91D0
:1053B0000F910895CF93DF93EC0188819981892B18
:1053C00029F08A819B818617970758F4CE01D9DF8F
:1053D000882341F08C819D81892B19F4E881F98122
:1053E000108281E0DF91CF910895EF92FF920F93A9
:1053F0001F93CF93DF93EC017B018A01BA01DADFBF
:10540000811103C0CE01ACDF06C01D830C83B70140
:10541000888199810BD5CE01DF91CF911F910F919A
:10542000FF90EF900895FC01118210821382128286
:10543000158214826115710551F0FB010190002065
:10544000E9F7AF0141505109461B570BCECF0895E4
:10545000CF93DF93EC016115710559F0FB010190C9
:105460000020E9F7AF0141505109461B570BBDDF42
:1054700001C076DFCE01DF91CF910895EF92FF92C8
:105480000F931F93CF93DF93EC017B010C811D8160
:105490006115710511F480E014C04115510581F0CA
:1054A000040F151FB80186DF8823A9F328813981ED
:1054B0008C819D81B701820F931FB8D41D830C830B
:1054C00081E0DF91CF911F910F91FF90EF900895B0
:1054D0006115710551F0FB0101900020E9F7AF0162
:1054E00041505109461B570BC9CF80E00895EF92F8
:1054F000FF920F931F93CF93DF93CDB7DEB728971B
:105500000FB6F894DEBF0FBECDBF7C01CB014AE0E1
:1055100050E08E010F5F1F4FB8018FD4F80101904A
:105520000020E9F7AF0141505109401B510BB80170
:10553000C701A4DF28960FB6F894DEBF0FBECDBF1B
:10554000DF91CF911F910F91FF90EF9008955058E8
:10555000BB27AA270ED075C166D130F06BD120F0E1
:1055600031F49F3F11F41EF45BC10EF4E095E7FBAC
:1055700051C1E92F77D180F3BA1762077307840707
:10558000950718F071F49EF58FC10EF4E0950B2E7F
:10559000BA2FA02D0B01B90190010C01CA01A00185
:1055A0001124FF27591B99F0593F50F4503E68F1E0
:1055B0001A16F040A22F232F342F4427585FF3CF21
:1055C000469537952795A795F0405395C9F77EF4F2
:1055D0001F16BA0B620B730B840BBAF09150A1F03B
:1055E000FF0FBB1F661F771F881FC2F70EC0BA0FC1
:1055F000621F731F841F48F4879577956795B79549
:10560000F7959E3F08F0B3CF9395880F08F0992740
:10561000EE0F979587950895D9D008F481E0089505
:105620000CD00FC107D140F0FED030F021F45F3F25
:1056300019F0F0C0511139C1F3C014D198F3992376
:10564000C9F35523B1F3951B550BBB27AA27621746
:105650007307840738F09F5F5F4F220F331F441F8B
:10566000AA1FA9F333D00E2E3AF0E0E830D09150C3
:105670005040E695001CCAF729D0FE2F27D0660FB0
:10568000771F881FBB1F261737074807AB07B0E8EF
:1056900009F0BB0B802DBF01FF2793585F4F2AF005
:1056A0009E3F510568F0B6C000C15F3FECF3983EE5
:1056B000DCF3869577956795B795F7959F5FC9F762
:1056C000880F911D9695879597F90895E1E0660FEB
:1056D000771F881FBB1F621773078407BA0720F064
:1056E000621B730B840BBA0BEE1F88F7E0950895CD
:1056F00004D06894B111D9C00895BCD088F09F57E8
:1057000090F0B92F9927B751A0F0D1F0660F771F0D
:10571000881F991F1AF0BA95C9F712C0B13081F0ED
:10572000C3D0B1E00895C0C0672F782F8827B85F35
:1057300039F0B93FCCF3869577956795B395D9F74E
:105740003EF490958095709561957F4F8F4F9F4F58
:105750000895E89409C097FB3EF490958095709564
:1057600061957F4F8F4F9F4F9923A9F0F92F96E9AD
:10577000BB279395F695879577956795B795F11122
:10578000F8CFFAF4BB0F11F460FF1BC06F5F7F4FBF
:105790008F4F9F4F16C0882311F096E911C07723D1
:1057A00021F09EE8872F762F05C0662371F096E8DA
:1057B000862F70E060E02AF09A95660F771F881FA9
:1057C000DAF7880F9695879597F90895990F00084D
:1057D000550FAA0BE0E8FEEF16161706E807F907C3
:1057E000C0F012161306E407F50798F0621B730B5E
:1057F000840B950B39F40A2661F0232B242B252BDF
:1058000021F408950A2609F4A140A6958FEF811D81
:10581000811D089597F99F6780E870E060E0089522
:105820009FEF80EC089500240A94161617061806B8
:105830000906089500240A94121613061406050694
:105840000895092E0394000C11F4882352F0BB0F25
:1058500040F4BF2B11F460FF04C06F5F7F4F8F4F88
:105860009F4F089557FD9058440F551F59F05F3FC3
:1058700071F04795880F97FB991F61F09F3F79F072
:1058800087950895121613061406551FF2CF4695F4
:10589000F1DF08C0161617061806991FF1CF869576
:1058A0007105610508940895E894BB27662777275A
:1058B000CB0197F908958ADF08F48FEF08950BD094
:1058C000C0CFB1DF28F0B6DF18F0952309F0A2CFE2
:1058D000A7CF1124EACFC6DFA0F3959FD1F3950F90
:1058E00050E0551F629FF001729FBB27F00DB11D64
:1058F000639FAA27F00DB11DAA1F649F6627B00DF4
:10590000A11D661F829F2227B00DA11D621F739FDC
:10591000B00DA11D621F839FA00D611D221F749FEA
:105920003327A00D611D231F849F600D211D822F31
:10593000762F6A2F11249F5750408AF0E1F0882378
:105940004AF0EE0FFF1FBB1F661F771F881F915085
:105950005040A9F79E3F510570F05CCFA6CF5F3F46
:10596000ECF3983EDCF3869577956795B795F795B8
:10597000E7959F5FC1F7FE2B880F911D9695879540
:1059800097F9089523DF880B990B0895991B79E007
:1059900004C0991F961708F0961B881F7A95C9F7BF
:1059A00080950895A1E21A2EAA1BBB1BFD010DC014
:1059B000AA1FBB1FEE1FFF1FA217B307E407F507BF
:1059C00020F0A21BB30BE40BF50B661F771F881F9B
:1059D000991F1A9469F760957095809590959B0131
:1059E000AC01BD01CF010895EE0FFF1F0590F491AA
:1059F000E02D19940790F691E02D1994CF93DF9341
:105A00008230910510F482E090E0E091DA16F09196
:105A1000DB1620E030E0A0E0B0E0309739F14081C3
:105A2000518148175907B8F04817590771F4828116
:105A30009381109729F013969C938E9312972CC004
:105A40009093DB168093DA1627C02115310531F0CB
:105A50004217530718F0A901DB0101C0EF019A01B9
:105A6000BD01DF010280F381E02DD7CF2115310583
:105A7000F9F0281B390B2430310580F48A819B8191
:105A80006115710521F0FB019383828304C090931B
:105A9000DB168093DA16FE01329644C0FE01E20F57
:105AA000F31F8193919322503109398328833AC09F
:105AB0002091D8163091D916232B41F4209102025F
:105AC000309103023093D9162093D816209100020A
:105AD000309101022115310541F42DB73EB74091B7
